{
  "contractName": "RPS",
  "abi": [
    {
      "constant": false,
      "inputs": [],
      "name": "cleanup",
      "outputs": [],
      "payable": false,
      "stateMutability": "nonpayable",
      "type": "function"
    },
    {
      "constant": false,
      "inputs": [],
      "name": "register",
      "outputs": [],
      "payable": false,
      "stateMutability": "nonpayable",
      "type": "function"
    },
    {
      "constant": false,
      "inputs": [
        {
          "name": "choice",
          "type": "string"
        },
        {
          "name": "randStr",
          "type": "string"
        }
      ],
      "name": "lock",
      "outputs": [],
      "payable": false,
      "stateMutability": "nonpayable",
      "type": "function"
    },
    {
      "constant": false,
      "inputs": [
        {
          "name": "choice",
          "type": "string"
        },
        {
          "name": "randStr",
          "type": "string"
        }
      ],
      "name": "open",
      "outputs": [],
      "payable": false,
      "stateMutability": "nonpayable",
      "type": "function"
    },
    {
      "constant": true,
      "inputs": [],
      "name": "getUser1",
      "outputs": [
        {
          "name": "",
          "type": "address"
        }
      ],
      "payable": false,
      "stateMutability": "view",
      "type": "function"
    },
    {
      "constant": true,
      "inputs": [],
      "name": "getUser2",
      "outputs": [
        {
          "name": "",
          "type": "address"
        }
      ],
      "payable": false,
      "stateMutability": "view",
      "type": "function"
    },
    {
      "constant": true,
      "inputs": [],
      "name": "getHash1",
      "outputs": [
        {
          "name": "",
          "type": "bytes32"
        }
      ],
      "payable": false,
      "stateMutability": "view",
      "type": "function"
    },
    {
      "constant": true,
      "inputs": [],
      "name": "getHash2",
      "outputs": [
        {
          "name": "",
          "type": "bytes32"
        }
      ],
      "payable": false,
      "stateMutability": "view",
      "type": "function"
    },
    {
      "constant": true,
      "inputs": [],
      "name": "getState",
      "outputs": [
        {
          "name": "",
          "type": "int256"
        }
      ],
      "payable": false,
      "stateMutability": "view",
      "type": "function"
    }
  ],
  "bytecode": "0x6060604052341561000f57600080fd5b6116158061001e6000396000f300606060405260043610610099576000357c0100000000000000000000000000000000000000000000000000000000900463ffffffff16806311c171ba1461009e5780631865c57d146100cf5780631aa3a008146100f857806333c0f0991461010d57806336d81f071461013e57806339110b78146101935780633cecd719146102335780634406face146102485780639e01f9b9146102e8575b600080fd5b34156100a957600080fd5b6100b161033d565b60405180826000191660001916815260200191505060405180910390f35b34156100da57600080fd5b6100e2610347565b6040518082815260200191505060405180910390f35b341561010357600080fd5b61010b6103fa565b005b341561011857600080fd5b6101206105bb565b60405180826000191660001916815260200191505060405180910390f35b341561014957600080fd5b6101516105c5565b604051808273ffffffffffffffffffffffffffffffffffffffff1673ffffffffffffffffffffffffffffffffffffffff16815260200191505060405180910390f35b341561019e57600080fd5b610231600480803590602001908201803590602001908080601f0160208091040260200160405190810160405280939291908181526020018383808284378201915050505050509190803590602001908201803590602001908080601f016020809104026020016040519081016040528093929190818152602001838380828437820191505050505050919050506105ee565b005b341561023e57600080fd5b610246610f9f565b005b341561025357600080fd5b6102e6600480803590602001908201803590602001908080601f0160208091040260200160405190810160405280939291908181526020018383808284378201915050505050509190803590602001908201803590602001908080601f01602080910402602001604051908101604052809392919081815260200183838082843782019150505050505091905050611054565b005b34156102f357600080fd5b6102fb6115bf565b604051808273ffffffffffffffffffffffffffffffffffffffff1673ffffffffffffffffffffffffffffffffffffffff16815260200191505060405180910390f35b6000600254905090565b6000806001026000191660025460001916148015610372575060006001026000191660035460001916145b1561038057600090506103f7565b600060010260001916600254600019161480156103ab57506000600102600019166003546000191614155b156103b957600190506103f7565b60006001026000191660025460001916141580156103e4575060006001026000191660035460001916145b156103f257600290506103f7565b600390505b90565b6000809054906101000a900473ffffffffffffffffffffffffffffffffffffffff1673ffffffffffffffffffffffffffffffffffffffff163373ffffffffffffffffffffffffffffffffffffffff16141580156104a55750600160009054906101000a900473ffffffffffffffffffffffffffffffffffffffff1673ffffffffffffffffffffffffffffffffffffffff163373ffffffffffffffffffffffffffffffffffffffff1614155b15156104b057600080fd5b60008060009054906101000a900473ffffffffffffffffffffffffffffffffffffffff1673ffffffffffffffffffffffffffffffffffffffff16141561053557336000806101000a81548173ffffffffffffffffffffffffffffffffffffffff021916908373ffffffffffffffffffffffffffffffffffffffff1602179055506105b9565b6000600160009054906101000a900473ffffffffffffffffffffffffffffffffffffffff1673ffffffffffffffffffffffffffffffffffffffff1614156105b85733600160006101000a81548173ffffffffffffffffffffffffffffffffffffffff021916908373ffffffffffffffffffffffffffffffffffffffff1602179055505b5b565b6000600354905090565b60008060009054906101000a900473ffffffffffffffffffffffffffffffffffffffff16905090565b60008060009054906101000a900473ffffffffffffffffffffffffffffffffffffffff1673ffffffffffffffffffffffffffffffffffffffff163373ffffffffffffffffffffffffffffffffffffffff1614806106985750600160009054906101000a900473ffffffffffffffffffffffffffffffffffffffff1673ffffffffffffffffffffffffffffffffffffffff163373ffffffffffffffffffffffffffffffffffffffff16145b15156106a357600080fd5b600060010260025460001916141580156106c7575060006001026003546000191614155b15156106d257600080fd5b8260405180807f726f636b000000000000000000000000000000000000000000000000000000008152506004019050604051809103902060001916816040518082805190602001908083835b602083101515610743578051825260208201915060208101905060208303925061071e565b6001836020036101000a038019825116818451168082178552505050505050905001915050604051809103902060001916148061081e575060405180807f70617065720000000000000000000000000000000000000000000000000000008152506005019050604051809103902060001916816040518082805190602001908083835b6020831015156107eb57805182526020820191506020810190506020830392506107c6565b6001836020036101000a038019825116818451168082178552505050505050905001915050604051809103902060001916145b806108c7575060405180807f73636973736f72730000000000000000000000000000000000000000000000008152506008019050604051809103902060001916816040518082805190602001908083835b602083101515610894578051825260208201915060208101905060208303925061086f565b6001836020036101000a038019825116818451168082178552505050505050905001915050604051809103902060001916145b15156108d257600080fd5b826040518082805190602001908083835b60208310151561090857805182526020820191506020810190506020830392506108e3565b6001836020036101000a0380198251168184511680821785525050505050509050019150506040518091039020846040518082805190602001908083835b60208310151561096b5780518252602082019150602081019050602083039250610946565b6001836020036101000a038019825116818451168082178552505050505050905001915050604051809103902018604051808260001916600019168152602001915050604051809103902091506000809054906101000a900473ffffffffffffffffffffffffffffffffffffffff1673ffffffffffffffffffffffffffffffffffffffff163373ffffffffffffffffffffffffffffffffffffffff161415610c31576002546000191682600019161415610c305760405180807f726f636b000000000000000000000000000000000000000000000000000000008152506004019050604051809103902060001916846040518082805190602001908083835b602083101515610a8f5780518252602082019150602081019050602083039250610a6a565b6001836020036101000a0380198251168184511680821785525050505050509050019150506040518091039020600019161415610acf5760006004819055505b60405180807f70617065720000000000000000000000000000000000000000000000000000008152506005019050604051809103902060001916846040518082805190602001908083835b602083101515610b3f5780518252602082019150602081019050602083039250610b1a565b6001836020036101000a0380198251168184511680821785525050505050509050019150506040518091039020600019161415610b7f5760016004819055505b60405180807f73636973736f72730000000000000000000000000000000000000000000000008152506008019050604051809103902060001916846040518082805190602001908083835b602083101515610bef5780518252602082019150602081019050602083039250610bca565b6001836020036101000a0380198251168184511680821785525050505050509050019150506040518091039020600019161415610c2f5760026004819055505b5b5b600160009054906101000a900473ffffffffffffffffffffffffffffffffffffffff1673ffffffffffffffffffffffffffffffffffffffff163373ffffffffffffffffffffffffffffffffffffffff161415610f9957826040518082805190602001908083835b602083101515610cbd5780518252602082019150602081019050602083039250610c98565b6001836020036101000a0380198251168184511680821785525050505050509050019150506040518091039020846040518082805190602001908083835b602083101515610d205780518252602082019150602081019050602083039250610cfb565b6001836020036101000a0380198251168184511680821785525050505050509050019150506040518091039020186040518082600019166000191681526020019150506040518091039020600381600019169055506002546000191682600019161415610f985760405180807f726f636b000000000000000000000000000000000000000000000000000000008152506004019050604051809103902060001916846040518082805190602001908083835b602083101515610df75780518252602082019150602081019050602083039250610dd2565b6001836020036101000a0380198251168184511680821785525050505050509050019150506040518091039020600019161415610e375760006004819055505b60405180807f70617065720000000000000000000000000000000000000000000000000000008152506005019050604051809103902060001916846040518082805190602001908083835b602083101515610ea75780518252602082019150602081019050602083039250610e82565b6001836020036101000a0380198251168184511680821785525050505050509050019150506040518091039020600019161415610ee75760016004819055505b60405180807f73636973736f72730000000000000000000000000000000000000000000000008152506008019050604051809103902060001916846040518082805190602001908083835b602083101515610f575780518252602082019150602081019050602083039250610f32565b6001836020036101000a0380198251168184511680821785525050505050509050019150506040518091039020600019161415610f975760026004819055505b5b5b50505050565b60008060006101000a81548173ffffffffffffffffffffffffffffffffffffffff021916908373ffffffffffffffffffffffffffffffffffffffff1602179055506000600160006101000a81548173ffffffffffffffffffffffffffffffffffffffff021916908373ffffffffffffffffffffffffffffffffffffffff160217905550600060028160001916905550600060038160001916905550600060048190555060006005819055506000600681905550565b6000809054906101000a900473ffffffffffffffffffffffffffffffffffffffff1673ffffffffffffffffffffffffffffffffffffffff163373ffffffffffffffffffffffffffffffffffffffff1614806110fc5750600160009054906101000a900473ffffffffffffffffffffffffffffffffffffffff1673ffffffffffffffffffffffffffffffffffffffff163373ffffffffffffffffffffffffffffffffffffffff16145b151561110757600080fd5b8160405180807f726f636b000000000000000000000000000000000000000000000000000000008152506004019050604051809103902060001916816040518082805190602001908083835b6020831015156111785780518252602082019150602081019050602083039250611153565b6001836020036101000a0380198251168184511680821785525050505050509050019150506040518091039020600019161480611253575060405180807f70617065720000000000000000000000000000000000000000000000000000008152506005019050604051809103902060001916816040518082805190602001908083835b60208310151561122057805182526020820191506020810190506020830392506111fb565b6001836020036101000a038019825116818451168082178552505050505050905001915050604051809103902060001916145b806112fc575060405180807f73636973736f72730000000000000000000000000000000000000000000000008152506008019050604051809103902060001916816040518082805190602001908083835b6020831015156112c957805182526020820191506020810190506020830392506112a4565b6001836020036101000a038019825116818451168082178552505050505050905001915050604051809103902060001916145b151561130757600080fd5b6000809054906101000a900473ffffffffffffffffffffffffffffffffffffffff1673ffffffffffffffffffffffffffffffffffffffff163373ffffffffffffffffffffffffffffffffffffffff1614801561136c5750600060010260025460001916145b1561146057816040518082805190602001908083835b6020831015156113a75780518252602082019150602081019050602083039250611382565b6001836020036101000a0380198251168184511680821785525050505050509050019150506040518091039020836040518082805190602001908083835b60208310151561140a57805182526020820191506020810190506020830392506113e5565b6001836020036101000a0380198251168184511680821785525050505050509050019150506040518091039020186040518082600019166000191681526020019150506040518091039020600281600019169055505b600160009054906101000a900473ffffffffffffffffffffffffffffffffffffffff1673ffffffffffffffffffffffffffffffffffffffff163373ffffffffffffffffffffffffffffffffffffffff161480156114c65750600060010260035460001916145b156115ba57816040518082805190602001908083835b60208310151561150157805182526020820191506020810190506020830392506114dc565b6001836020036101000a0380198251168184511680821785525050505050509050019150506040518091039020836040518082805190602001908083835b602083101515611564578051825260208201915060208101905060208303925061153f565b6001836020036101000a0380198251168184511680821785525050505050509050019150506040518091039020186040518082600019166000191681526020019150506040518091039020600381600019169055505b505050565b6000600160009054906101000a900473ffffffffffffffffffffffffffffffffffffffff169050905600a165627a7a72305820ff1583a7bc2677c5a13b8b72dea57c9b7aa21955222e2abf8030d1738ce5872e0029",
  "source": "pragma solidity ^0.4.17;\n\ncontract RPS {\n\t// Rock =0, Paper = 1, Scissors = 2\n\taddress user1;\n\taddress user2;\n\tbytes32 hash1;\n\tbytes32 hash2;\n\tint claimed1;\n\tint claimed2;\n\tint startTimeForClaim;\n\n\t// Check if required minimum amount is present\n\tmodifier checkbalance() {\n\t\trequire(msg.value>=5);\n\t\t_;\n\t}\n\t// Check if user is already registered\n\tmodifier isRegistered() {\n\t\trequire(msg.sender==user1 || msg.sender==user2);\n\t\t_;\n\t}\n\t// Check if user is already registered\n\tmodifier isNotRegistered() {\n\t\trequire(msg.sender!=user1 && msg.sender!=user2);\n\t\t_;\n\t}\n\t// Check if both users have locked their choices, so the game can go to reveal stage\n\tmodifier bothLocked(){\n\t\trequire( hash1!=0 && hash2!=0);\n\t\t_;\n\t}\n\t// Check if string is valid\n\tmodifier validChoice(string choice){\n\t\trequire(keccak256(choice) == keccak256(\"rock\") || keccak256(choice) == keccak256(\"paper\") || keccak256(choice) == keccak256(\"scissors\"));\n\t\t_;\n\t}\n\n\t// Initializes all the variables to default values\n\tfunction cleanup() public {\n\t  user1 = address(0);\n\t  user2 = address(0);\n\t  hash1 = \"\";\n\t  hash2 = \"\";\n\t  claimed1 = 0;\n\t  claimed2 = 0;\n\t  startTimeForClaim = 0;\n\t}\n\tfunction register() public isNotRegistered {\n\t\tif(user1==0){\n\t\t\tuser1 = msg.sender;\n\t\t}\n\t\telse {\n\t\t\tif(user2==0)\n\t\t\t\tuser2 = msg.sender;\n\t\t}\n\t}\n\tfunction lock(string choice,string randStr) public isRegistered validChoice(choice) {\n\t\tif(msg.sender ==user1 && hash1==0)\n\t\t\thash1 = keccak256(keccak256(choice) ^ keccak256(randStr));\n\t\tif(msg.sender ==user2 && hash2==0)\n\t\t\thash2 = keccak256(keccak256(choice) ^ keccak256(randStr));\n\t}\n\tfunction open(string choice,string randStr) public isRegistered bothLocked validChoice(choice) {\n\t\tbytes32 tempHash = keccak256(keccak256(choice) ^ keccak256(randStr));\n\t\tif(msg.sender ==user1){\n\t\t\tif(tempHash==hash1){\n\t\t\t\tif(keccak256(choice)==keccak256(\"rock\"))\n\t\t\t\t\tclaimed1 = 0;\n\t\t\t\tif(keccak256(choice)==keccak256(\"paper\"))\n\t\t\t\t\tclaimed1 = 1;\n\t\t\t\tif(keccak256(choice)==keccak256(\"scissors\"))\n\t\t\t\t\tclaimed1 = 2;\n\t\t\t}\n\t\t}\n\t\tif(msg.sender ==user2){\n\t\t\thash2 = keccak256(keccak256(choice) ^ keccak256(randStr));\n\t\t\tif(tempHash==hash1){\n\t\t\t\tif(keccak256(choice)==keccak256(\"rock\"))\n\t\t\t\t\tclaimed1 = 0;\n\t\t\t\tif(keccak256(choice)==keccak256(\"paper\"))\n\t\t\t\t\tclaimed1 = 1;\n\t\t\t\tif(keccak256(choice)==keccak256(\"scissors\"))\n\t\t\t\t\tclaimed1 = 2;\n\t\t\t}\n\t\t}\n\t}\n\t// Functions for logs\n\tfunction getUser1() public view returns (address) {\n\t  \treturn user1;\n\t}\n\tfunction getUser2() public view returns (address) {\n\t  \treturn user2;\n\t}\n\tfunction getHash1() public view returns (bytes32) {\n\t  \treturn hash1;\n\t}\n\tfunction getHash2() public view returns (bytes32) {\n\t  \treturn hash2;\n\t}\n\tfunction getState() public view returns (int) {\n\t  \tif(hash1==bytes32(0) && hash2==bytes32(0))\n\t  \t\treturn 0;\n\t  \tif(hash1==bytes32(0) && hash2!=bytes32(0))\n\t  \t\treturn 1;\n\t  \tif(hash1!=bytes32(0) && hash2==bytes32(0))\n\t  \t\treturn 2;\n\t  \treturn 3;\n\t}\n}\n",
  "sourcePath": "/home/manish/Academics/467/Smart-Contract/RPS/contracts/RPS.sol",
  "compiler": {
    "name": "solc",
    "version": "0.4.19+commit.c4cbbb05.Emscripten.clang"
  },
  "schemaVersion": "1.0.1",
  "updatedAt": "2018-02-28T22:02:22.820Z"
}