{
  "contractName": "RPS",
  "abi": [
    {
      "constant": false,
      "inputs": [],
      "name": "cleanup",
      "outputs": [],
      "payable": false,
      "stateMutability": "nonpayable",
      "type": "function"
    },
    {
      "constant": false,
      "inputs": [],
      "name": "register",
      "outputs": [],
      "payable": false,
      "stateMutability": "nonpayable",
      "type": "function"
    },
    {
      "constant": false,
      "inputs": [
        {
          "name": "choice",
          "type": "string"
        },
        {
          "name": "randStr",
          "type": "string"
        }
      ],
      "name": "lock",
      "outputs": [
        {
          "name": "",
          "type": "bool"
        }
      ],
      "payable": false,
      "stateMutability": "nonpayable",
      "type": "function"
    },
    {
      "constant": false,
      "inputs": [
        {
          "name": "choice",
          "type": "string"
        },
        {
          "name": "randStr",
          "type": "string"
        }
      ],
      "name": "open",
      "outputs": [
        {
          "name": "",
          "type": "bool"
        }
      ],
      "payable": false,
      "stateMutability": "nonpayable",
      "type": "function"
    },
    {
      "constant": true,
      "inputs": [],
      "name": "getUser1",
      "outputs": [
        {
          "name": "",
          "type": "address"
        }
      ],
      "payable": false,
      "stateMutability": "view",
      "type": "function"
    },
    {
      "constant": true,
      "inputs": [],
      "name": "getUser2",
      "outputs": [
        {
          "name": "",
          "type": "address"
        }
      ],
      "payable": false,
      "stateMutability": "view",
      "type": "function"
    },
    {
      "constant": true,
      "inputs": [],
      "name": "getHash1",
      "outputs": [
        {
          "name": "",
          "type": "bytes32"
        }
      ],
      "payable": false,
      "stateMutability": "view",
      "type": "function"
    },
    {
      "constant": true,
      "inputs": [],
      "name": "getHash2",
      "outputs": [
        {
          "name": "",
          "type": "bytes32"
        }
      ],
      "payable": false,
      "stateMutability": "view",
      "type": "function"
    },
    {
      "constant": true,
      "inputs": [],
      "name": "getState",
      "outputs": [
        {
          "name": "",
          "type": "int256"
        }
      ],
      "payable": false,
      "stateMutability": "view",
      "type": "function"
    }
  ],
  "bytecode": "0x6060604052341561000f57600080fd5b6115c18061001e6000396000f300606060405260043610610099576000357c0100000000000000000000000000000000000000000000000000000000900463ffffffff16806311c171ba1461009e5780631865c57d146100cf5780631aa3a008146100f857806333c0f0991461010d57806336d81f071461013e57806339110b78146101935780633cecd7191461024b5780634406face146102605780639e01f9b914610318575b600080fd5b34156100a957600080fd5b6100b161036d565b60405180826000191660001916815260200191505060405180910390f35b34156100da57600080fd5b6100e2610377565b6040518082815260200191505060405180910390f35b341561010357600080fd5b61010b610435565b005b341561011857600080fd5b6101206105f6565b60405180826000191660001916815260200191505060405180910390f35b341561014957600080fd5b610151610600565b604051808273ffffffffffffffffffffffffffffffffffffffff1673ffffffffffffffffffffffffffffffffffffffff16815260200191505060405180910390f35b341561019e57600080fd5b610231600480803590602001908201803590602001908080601f0160208091040260200160405190810160405280939291908181526020018383808284378201915050505050509190803590602001908201803590602001908080601f01602080910402602001604051908101604052809392919081815260200183838082843782019150505050505091905050610629565b604051808215151515815260200191505060405180910390f35b341561025657600080fd5b61025e610f24565b005b341561026b57600080fd5b6102fe600480803590602001908201803590602001908080601f0160208091040260200160405190810160405280939291908181526020018383808284378201915050505050509190803590602001908201803590602001908080601f01602080910402602001604051908101604052809392919081815260200183838082843782019150505050505091905050610fdf565b604051808215151515815260200191505060405180910390f35b341561032357600080fd5b61032b61156b565b604051808273ffffffffffffffffffffffffffffffffffffffff1673ffffffffffffffffffffffffffffffffffffffff16815260200191505060405180910390f35b6000600254905090565b60008060010260001916600254600019161480156103a2575060006001026000191660035460001916145b156103b05760009050610432565b600060010260001916600254600019161480156103db57506000600102600019166003546000191614155b156103e95760019050610432565b6000600102600019166002546000191614158015610414575060006001026000191660035460001916145b156104225760029050610432565b600554600a600454020160040190505b90565b6000809054906101000a900473ffffffffffffffffffffffffffffffffffffffff1673ffffffffffffffffffffffffffffffffffffffff163373ffffffffffffffffffffffffffffffffffffffff16141580156104e05750600160009054906101000a900473ffffffffffffffffffffffffffffffffffffffff1673ffffffffffffffffffffffffffffffffffffffff163373ffffffffffffffffffffffffffffffffffffffff1614155b15156104eb57600080fd5b60008060009054906101000a900473ffffffffffffffffffffffffffffffffffffffff1673ffffffffffffffffffffffffffffffffffffffff16141561057057336000806101000a81548173ffffffffffffffffffffffffffffffffffffffff021916908373ffffffffffffffffffffffffffffffffffffffff1602179055506105f4565b6000600160009054906101000a900473ffffffffffffffffffffffffffffffffffffffff1673ffffffffffffffffffffffffffffffffffffffff1614156105f35733600160006101000a81548173ffffffffffffffffffffffffffffffffffffffff021916908373ffffffffffffffffffffffffffffffffffffffff1602179055505b5b565b6000600354905090565b60008060009054906101000a900473ffffffffffffffffffffffffffffffffffffffff16905090565b6000806000809054906101000a900473ffffffffffffffffffffffffffffffffffffffff1673ffffffffffffffffffffffffffffffffffffffff163373ffffffffffffffffffffffffffffffffffffffff1614806106d45750600160009054906101000a900473ffffffffffffffffffffffffffffffffffffffff1673ffffffffffffffffffffffffffffffffffffffff163373ffffffffffffffffffffffffffffffffffffffff16145b15156106df57600080fd5b60006001026002546000191614158015610703575060006001026003546000191614155b151561070e57600080fd5b8360405180807f726f636b000000000000000000000000000000000000000000000000000000008152506004019050604051809103902060001916816040518082805190602001908083835b60208310151561077f578051825260208201915060208101905060208303925061075a565b6001836020036101000a038019825116818451168082178552505050505050905001915050604051809103902060001916148061085a575060405180807f70617065720000000000000000000000000000000000000000000000000000008152506005019050604051809103902060001916816040518082805190602001908083835b6020831015156108275780518252602082019150602081019050602083039250610802565b6001836020036101000a038019825116818451168082178552505050505050905001915050604051809103902060001916145b80610903575060405180807f73636973736f72730000000000000000000000000000000000000000000000008152506008019050604051809103902060001916816040518082805190602001908083835b6020831015156108d057805182526020820191506020810190506020830392506108ab565b6001836020036101000a038019825116818451168082178552505050505050905001915050604051809103902060001916145b151561090e57600080fd5b836040518082805190602001908083835b602083101515610944578051825260208201915060208101905060208303925061091f565b6001836020036101000a0380198251168184511680821785525050505050509050019150506040518091039020856040518082805190602001908083835b6020831015156109a75780518252602082019150602081019050602083039250610982565b6001836020036101000a038019825116818451168082178552505050505050905001915050604051809103902018604051808260001916600019168152602001915050604051809103902091506000809054906101000a900473ffffffffffffffffffffffffffffffffffffffff1673ffffffffffffffffffffffffffffffffffffffff163373ffffffffffffffffffffffffffffffffffffffff161415610c85576002546000191682600019161415610c845760405180807f726f636b000000000000000000000000000000000000000000000000000000008152506004019050604051809103902060001916856040518082805190602001908083835b602083101515610acb5780518252602082019150602081019050602083039250610aa6565b6001836020036101000a0380198251168184511680821785525050505050509050019150506040518091039020600019161415610b1357600160048190555060019250610f1c565b60405180807f70617065720000000000000000000000000000000000000000000000000000008152506005019050604051809103902060001916856040518082805190602001908083835b602083101515610b835780518252602082019150602081019050602083039250610b5e565b6001836020036101000a0380198251168184511680821785525050505050509050019150506040518091039020600019161415610bcb57600260048190555060019250610f1c565b60405180807f73636973736f72730000000000000000000000000000000000000000000000008152506008019050604051809103902060001916856040518082805190602001908083835b602083101515610c3b5780518252602082019150602081019050602083039250610c16565b6001836020036101000a0380198251168184511680821785525050505050509050019150506040518091039020600019161415610c8357600360048190555060019250610f1c565b5b5b600160009054906101000a900473ffffffffffffffffffffffffffffffffffffffff1673ffffffffffffffffffffffffffffffffffffffff163373ffffffffffffffffffffffffffffffffffffffff161415610f17576003546000191682600019161415610f165760405180807f726f636b000000000000000000000000000000000000000000000000000000008152506004019050604051809103902060001916856040518082805190602001908083835b602083101515610d5d5780518252602082019150602081019050602083039250610d38565b6001836020036101000a0380198251168184511680821785525050505050509050019150506040518091039020600019161415610da557600160058190555060019250610f1c565b60405180807f70617065720000000000000000000000000000000000000000000000000000008152506005019050604051809103902060001916856040518082805190602001908083835b602083101515610e155780518252602082019150602081019050602083039250610df0565b6001836020036101000a0380198251168184511680821785525050505050509050019150506040518091039020600019161415610e5d57600260058190555060019250610f1c565b60405180807f73636973736f72730000000000000000000000000000000000000000000000008152506008019050604051809103902060001916856040518082805190602001908083835b602083101515610ecd5780518252602082019150602081019050602083039250610ea8565b6001836020036101000a0380198251168184511680821785525050505050509050019150506040518091039020600019161415610f1557600360058190555060019250610f1c565b5b5b600092505b505092915050565b60008060006101000a81548173ffffffffffffffffffffffffffffffffffffffff021916908373ffffffffffffffffffffffffffffffffffffffff1602179055506000600160006101000a81548173ffffffffffffffffffffffffffffffffffffffff021916908373ffffffffffffffffffffffffffffffffffffffff160217905550600060010260028160001916905550600060010260038160001916905550600060048190555060006005819055506000600681905550565b60008060009054906101000a900473ffffffffffffffffffffffffffffffffffffffff1673ffffffffffffffffffffffffffffffffffffffff163373ffffffffffffffffffffffffffffffffffffffff1614806110895750600160009054906101000a900473ffffffffffffffffffffffffffffffffffffffff1673ffffffffffffffffffffffffffffffffffffffff163373ffffffffffffffffffffffffffffffffffffffff16145b151561109457600080fd5b8260405180807f726f636b000000000000000000000000000000000000000000000000000000008152506004019050604051809103902060001916816040518082805190602001908083835b60208310151561110557805182526020820191506020810190506020830392506110e0565b6001836020036101000a03801982511681845116808217855250505050505090500191505060405180910390206000191614806111e0575060405180807f70617065720000000000000000000000000000000000000000000000000000008152506005019050604051809103902060001916816040518082805190602001908083835b6020831015156111ad5780518252602082019150602081019050602083039250611188565b6001836020036101000a038019825116818451168082178552505050505050905001915050604051809103902060001916145b80611289575060405180807f73636973736f72730000000000000000000000000000000000000000000000008152506008019050604051809103902060001916816040518082805190602001908083835b6020831015156112565780518252602082019150602081019050602083039250611231565b6001836020036101000a038019825116818451168082178552505050505050905001915050604051809103902060001916145b151561129457600080fd5b6000809054906101000a900473ffffffffffffffffffffffffffffffffffffffff1673ffffffffffffffffffffffffffffffffffffffff163373ffffffffffffffffffffffffffffffffffffffff161480156112fd575060006001026000191660025460001916145b156113f957826040518082805190602001908083835b6020831015156113385780518252602082019150602081019050602083039250611313565b6001836020036101000a0380198251168184511680821785525050505050509050019150506040518091039020846040518082805190602001908083835b60208310151561139b5780518252602082019150602081019050602083039250611376565b6001836020036101000a03801982511681845116808217855250505050505090500191505060405180910390201860405180826000191660001916815260200191505060405180910390206002816000191690555060019150611564565b600160009054906101000a900473ffffffffffffffffffffffffffffffffffffffff1673ffffffffffffffffffffffffffffffffffffffff163373ffffffffffffffffffffffffffffffffffffffff16148015611463575060006001026000191660035460001916145b1561155f57826040518082805190602001908083835b60208310151561149e5780518252602082019150602081019050602083039250611479565b6001836020036101000a0380198251168184511680821785525050505050509050019150506040518091039020846040518082805190602001908083835b60208310151561150157805182526020820191506020810190506020830392506114dc565b6001836020036101000a03801982511681845116808217855250505050505090500191505060405180910390201860405180826000191660001916815260200191505060405180910390206003816000191690555060019150611564565b600091505b5092915050565b6000600160009054906101000a900473ffffffffffffffffffffffffffffffffffffffff169050905600a165627a7a723058202c9dec1eba738b921de6baca634239520f5a64185935c2da2e6754d86be912d60029",
  "source": "pragma solidity ^0.4.17;\n\ncontract RPS {\n\t// Rock =0, Paper = 1, Scissors = 2\n\taddress user1;\n\taddress user2;\n\tbytes32 hash1;\n\tbytes32 hash2;\n\tint claimed1;\n\tint claimed2;\n\tint startTimeForClaim;\n\n\t// Check if required minimum amount is present\n\tmodifier checkbalance() {\n\t\trequire(msg.value>=5);\n\t\t_;\n\t}\n\t// Check if user is already registered\n\tmodifier isRegistered() {\n\t\trequire(msg.sender==user1 || msg.sender==user2);\n\t\t_;\n\t}\n\t// Check if user is already registered\n\tmodifier isNotRegistered() {\n\t\trequire(msg.sender!=user1 && msg.sender!=user2);\n\t\t_;\n\t}\n\t// Check if both users have locked their choices, so the game can go to reveal stage\n\tmodifier bothLocked(){\n\t\trequire( hash1!=0 && hash2!=0);\n\t\t_;\n\t}\n\t// Check if string is valid\n\tmodifier validChoice(string choice){\n\t\trequire(keccak256(choice) == keccak256(\"rock\") || keccak256(choice) == keccak256(\"paper\") || keccak256(choice) == keccak256(\"scissors\"));\n\t\t_;\n\t}\n\n\t// Initializes all the variables to default values\n\tfunction cleanup() public {\n\t  user1 = address(0);\n\t  user2 = address(0);\n\t  hash1 = bytes32(0);\n\t  hash2 = bytes32(0);\n\t  claimed1 = 0;\n\t  claimed2 = 0;\n\t  startTimeForClaim = 0;\n\t}\n\tfunction register() public isNotRegistered {\n\t\tif(user1==0){\n\t\t\tuser1 = msg.sender;\n\t\t}\n\t\telse {\n\t\t\tif(user2==0)\n\t\t\t\tuser2 = msg.sender;\n\t\t}\n\t}\n\tfunction lock(string choice,string randStr) public isRegistered validChoice(choice) returns (bool) {\n\t\tif(msg.sender ==user1 && hash1==bytes32(0)){\n\t\t\thash1 = keccak256(keccak256(choice) ^ keccak256(randStr));\n\t\t\treturn true;\n\t\t}\n\t\tif(msg.sender ==user2 && hash2==bytes32(0)){\n\t\t\thash2 = keccak256(keccak256(choice) ^ keccak256(randStr));\n\t\t\treturn true;\n\t\t}\n\t\treturn false;\n\t}\n\tfunction open(string choice,string randStr) public isRegistered bothLocked validChoice(choice) returns (bool) {\n\t\tbytes32 tempHash = keccak256(keccak256(choice) ^ keccak256(randStr));\n\t\tif(msg.sender ==user1){\n\t\t\tif(tempHash==hash1){\n\t\t\t\tif(keccak256(choice)==keccak256(\"rock\")){\n\t\t\t\t\tclaimed1 = 1;\n\t\t\t\t\treturn true;\n\t\t\t\t}\n\t\t\t\tif(keccak256(choice)==keccak256(\"paper\")){\n\t\t\t\t\tclaimed1 = 2;\n\t\t\t\t\treturn true;\n\t\t\t\t}\n\t\t\t\tif(keccak256(choice)==keccak256(\"scissors\")){\n\t\t\t\t\tclaimed1 = 3;\n\t\t\t\t\treturn true;\n\t\t\t\t}\n\t\t\t}\n\t\t}\n\t\tif(msg.sender ==user2){\n\t\t\tif(tempHash==hash2){\n\t\t\t\tif(keccak256(choice)==keccak256(\"rock\")){\n\t\t\t\t\tclaimed2 = 1;\n\t\t\t\t\treturn true;\n\t\t\t\t}\n\t\t\t\tif(keccak256(choice)==keccak256(\"paper\")){\n\t\t\t\t\tclaimed2 = 2;\n\t\t\t\t\treturn true;\n\t\t\t\t}\n\t\t\t\tif(keccak256(choice)==keccak256(\"scissors\")){\n\t\t\t\t\tclaimed2 = 3;\n\t\t\t\t\treturn true;\n\t\t\t\t}\n\t\t\t}\n\t\t}\n\t\treturn false;\n\t}\n\t// Functions for logs\n\tfunction getUser1() public view returns (address) {\n\t  \treturn user1;\n\t}\n\tfunction getUser2() public view returns (address) {\n\t  \treturn user2;\n\t}\n\tfunction getHash1() public view returns (bytes32) {\n\t  \treturn hash1;\n\t}\n\tfunction getHash2() public view returns (bytes32) {\n\t  \treturn hash2;\n\t}\n\tfunction getState() public view returns (int) {\n\t  \tif(hash1==bytes32(0) && hash2==bytes32(0))\n\t  \t\treturn 0;\n\t  \tif(hash1==bytes32(0) && hash2!=bytes32(0))\n\t  \t\treturn 1;\n\t  \tif(hash1!=bytes32(0) && hash2==bytes32(0))\n\t  \t\treturn 2;\n\t  \t// Both users have locked at this point of time, return values if claimed\n\t  \treturn 4 + (claimed1*10 + claimed2);\n\t}\n}\n",
  "sourcePath": "/home/manish/Academics/467/Smart-Contract/RPS/contracts/RPS.sol",
  "compiler": {
    "name": "solc",
    "version": "0.4.19+commit.c4cbbb05.Emscripten.clang"
  },
  "schemaVersion": "1.0.1",
  "updatedAt": "2018-03-02T00:36:52.026Z"
}