{
  "contractName": "RPS",
  "abi": [
    {
      "constant": false,
      "inputs": [],
      "name": "cleanup",
      "outputs": [],
      "payable": false,
      "stateMutability": "nonpayable",
      "type": "function"
    },
    {
      "constant": false,
      "inputs": [],
      "name": "register",
      "outputs": [],
      "payable": true,
      "stateMutability": "payable",
      "type": "function"
    },
    {
      "constant": false,
      "inputs": [
        {
          "name": "choice",
          "type": "string"
        },
        {
          "name": "randStr",
          "type": "string"
        }
      ],
      "name": "lock",
      "outputs": [
        {
          "name": "",
          "type": "bool"
        }
      ],
      "payable": false,
      "stateMutability": "nonpayable",
      "type": "function"
    },
    {
      "constant": false,
      "inputs": [
        {
          "name": "choice",
          "type": "string"
        },
        {
          "name": "randStr",
          "type": "string"
        }
      ],
      "name": "open",
      "outputs": [
        {
          "name": "",
          "type": "bool"
        }
      ],
      "payable": false,
      "stateMutability": "nonpayable",
      "type": "function"
    },
    {
      "constant": false,
      "inputs": [],
      "name": "processRewards",
      "outputs": [],
      "payable": false,
      "stateMutability": "nonpayable",
      "type": "function"
    },
    {
      "constant": true,
      "inputs": [],
      "name": "getContractBalance",
      "outputs": [
        {
          "name": "amount",
          "type": "uint256"
        }
      ],
      "payable": false,
      "stateMutability": "view",
      "type": "function"
    },
    {
      "constant": true,
      "inputs": [],
      "name": "getContractAddress",
      "outputs": [
        {
          "name": "",
          "type": "address"
        }
      ],
      "payable": false,
      "stateMutability": "view",
      "type": "function"
    },
    {
      "constant": false,
      "inputs": [],
      "name": "sendAllMoney",
      "outputs": [],
      "payable": false,
      "stateMutability": "nonpayable",
      "type": "function"
    },
    {
      "constant": true,
      "inputs": [],
      "name": "getUser1",
      "outputs": [
        {
          "name": "",
          "type": "address"
        }
      ],
      "payable": false,
      "stateMutability": "view",
      "type": "function"
    },
    {
      "constant": true,
      "inputs": [],
      "name": "getUser2",
      "outputs": [
        {
          "name": "",
          "type": "address"
        }
      ],
      "payable": false,
      "stateMutability": "view",
      "type": "function"
    },
    {
      "constant": true,
      "inputs": [],
      "name": "getHash1",
      "outputs": [
        {
          "name": "",
          "type": "bytes32"
        }
      ],
      "payable": false,
      "stateMutability": "view",
      "type": "function"
    },
    {
      "constant": true,
      "inputs": [],
      "name": "getHash2",
      "outputs": [
        {
          "name": "",
          "type": "bytes32"
        }
      ],
      "payable": false,
      "stateMutability": "view",
      "type": "function"
    },
    {
      "constant": true,
      "inputs": [],
      "name": "getState",
      "outputs": [
        {
          "name": "",
          "type": "int256"
        }
      ],
      "payable": false,
      "stateMutability": "view",
      "type": "function"
    }
  ],
  "bytecode": "0x6060604052341561000f57600080fd5b611af08061001e6000396000f3006060604052600436106100c5576000357c0100000000000000000000000000000000000000000000000000000000900463ffffffff16806311c171ba146100ca5780631865c57d146100fb5780631aa3a0081461012457806332a2c5d01461012e57806333c0f0991461018357806336d81f07146101b457806339110b78146102095780633cecd719146102c15780634406face146102d65780635119cc611461038e5780636f9fb98a146103a35780639e01f9b9146103cc578063f9fc0d0714610421575b600080fd5b34156100d557600080fd5b6100dd610436565b60405180826000191660001916815260200191505060405180910390f35b341561010657600080fd5b61010e610440565b6040518082815260200191505060405180910390f35b61012c610556565b005b341561013957600080fd5b61014161072e565b604051808273ffffffffffffffffffffffffffffffffffffffff1673ffffffffffffffffffffffffffffffffffffffff16815260200191505060405180910390f35b341561018e57600080fd5b610196610736565b60405180826000191660001916815260200191505060405180910390f35b34156101bf57600080fd5b6101c7610740565b604051808273ffffffffffffffffffffffffffffffffffffffff1673ffffffffffffffffffffffffffffffffffffffff16815260200191505060405180910390f35b341561021457600080fd5b6102a7600480803590602001908201803590602001908080601f0160208091040260200160405190810160405280939291908181526020018383808284378201915050505050509190803590602001908201803590602001908080601f01602080910402602001604051908101604052809392919081815260200183838082843782019150505050505091905050610769565b604051808215151515815260200191505060405180910390f35b34156102cc57600080fd5b6102d46110d6565b005b34156102e157600080fd5b610374600480803590602001908201803590602001908080601f0160208091040260200160405190810160405280939291908181526020018383808284378201915050505050509190803590602001908201803590602001908080601f01602080910402602001604051908101604052809392919081815260200183838082843782019150505050505091905050611191565b604051808215151515815260200191505060405180910390f35b341561039957600080fd5b6103a161171d565b005b34156103ae57600080fd5b6103b6611776565b6040518082815260200191505060405180910390f35b34156103d757600080fd5b6103df611795565b604051808273ffffffffffffffffffffffffffffffffffffffff1673ffffffffffffffffffffffffffffffffffffffff16815260200191505060405180910390f35b341561042c57600080fd5b6104346117bf565b005b6000600254905090565b6000806000600102600019166002546000191614801561046d575060006001026000191660035460001916145b1561047b5760009150610552565b600060010260001916600254600019161480156104a657506000600102600019166003546000191614155b156104b45760019150610552565b60006001026000191660025460001916141580156104df575060006001026000191660035460001916145b156104ed5760029150610552565b600554600a600454020161019001905060006006541415801561051557506078600654420310155b1561054e5760006004541415610532576005546028016101900190505b6000600554141561054d576004600a60045402016101900190505b5b8091505b5090565b6000809054906101000a900473ffffffffffffffffffffffffffffffffffffffff1673ffffffffffffffffffffffffffffffffffffffff163373ffffffffffffffffffffffffffffffffffffffff16141580156106015750600160009054906101000a900473ffffffffffffffffffffffffffffffffffffffff1673ffffffffffffffffffffffffffffffffffffffff163373ffffffffffffffffffffffffffffffffffffffff1614155b151561060c57600080fd5b674563918244f40000341015151561062357600080fd5b60008060009054906101000a900473ffffffffffffffffffffffffffffffffffffffff1673ffffffffffffffffffffffffffffffffffffffff1614156106a857336000806101000a81548173ffffffffffffffffffffffffffffffffffffffff021916908373ffffffffffffffffffffffffffffffffffffffff16021790555061072c565b6000600160009054906101000a900473ffffffffffffffffffffffffffffffffffffffff1673ffffffffffffffffffffffffffffffffffffffff16141561072b5733600160006101000a81548173ffffffffffffffffffffffffffffffffffffffff021916908373ffffffffffffffffffffffffffffffffffffffff1602179055505b5b565b600030905090565b6000600354905090565b60008060009054906101000a900473ffffffffffffffffffffffffffffffffffffffff16905090565b6000806000809054906101000a900473ffffffffffffffffffffffffffffffffffffffff1673ffffffffffffffffffffffffffffffffffffffff163373ffffffffffffffffffffffffffffffffffffffff1614806108145750600160009054906101000a900473ffffffffffffffffffffffffffffffffffffffff1673ffffffffffffffffffffffffffffffffffffffff163373ffffffffffffffffffffffffffffffffffffffff16145b151561081f57600080fd5b60006001026002546000191614158015610843575060006001026003546000191614155b151561084e57600080fd5b8360405180807f726f636b000000000000000000000000000000000000000000000000000000008152506004019050604051809103902060001916816040518082805190602001908083835b6020831015156108bf578051825260208201915060208101905060208303925061089a565b6001836020036101000a038019825116818451168082178552505050505050905001915050604051809103902060001916148061099a575060405180807f70617065720000000000000000000000000000000000000000000000000000008152506005019050604051809103902060001916816040518082805190602001908083835b6020831015156109675780518252602082019150602081019050602083039250610942565b6001836020036101000a038019825116818451168082178552505050505050905001915050604051809103902060001916145b80610a43575060405180807f73636973736f72730000000000000000000000000000000000000000000000008152506008019050604051809103902060001916816040518082805190602001908083835b602083101515610a1057805182526020820191506020810190506020830392506109eb565b6001836020036101000a038019825116818451168082178552505050505050905001915050604051809103902060001916145b1515610a4e57600080fd5b836040518082805190602001908083835b602083101515610a845780518252602082019150602081019050602083039250610a5f565b6001836020036101000a0380198251168184511680821785525050505050509050019150506040518091039020856040518082805190602001908083835b602083101515610ae75780518252602082019150602081019050602083039250610ac2565b6001836020036101000a038019825116818451168082178552505050505050905001915050604051809103902018604051808260001916600019168152602001915050604051809103902091506000809054906101000a900473ffffffffffffffffffffffffffffffffffffffff1673ffffffffffffffffffffffffffffffffffffffff163373ffffffffffffffffffffffffffffffffffffffff161415610dfe576002546000191682600019161415610dfd5760405180807f726f636b000000000000000000000000000000000000000000000000000000008152506004019050604051809103902060001916856040518082805190602001908083835b602083101515610c0b5780518252602082019150602081019050602083039250610be6565b6001836020036101000a0380198251168184511680821785525050505050509050019150506040518091039020600019161415610c6657600160048190555060006006541415610c5d57426006819055505b600192506110ce565b60405180807f70617065720000000000000000000000000000000000000000000000000000008152506005019050604051809103902060001916856040518082805190602001908083835b602083101515610cd65780518252602082019150602081019050602083039250610cb1565b6001836020036101000a0380198251168184511680821785525050505050509050019150506040518091039020600019161415610d3157600260048190555060006006541415610d2857426006819055505b600192506110ce565b60405180807f73636973736f72730000000000000000000000000000000000000000000000008152506008019050604051809103902060001916856040518082805190602001908083835b602083101515610da15780518252602082019150602081019050602083039250610d7c565b6001836020036101000a0380198251168184511680821785525050505050509050019150506040518091039020600019161415610dfc57600360048190555060006006541415610df357426006819055505b600192506110ce565b5b5b600160009054906101000a900473ffffffffffffffffffffffffffffffffffffffff1673ffffffffffffffffffffffffffffffffffffffff163373ffffffffffffffffffffffffffffffffffffffff1614156110c95760035460001916826000191614156110c85760405180807f726f636b000000000000000000000000000000000000000000000000000000008152506004019050604051809103902060001916856040518082805190602001908083835b602083101515610ed65780518252602082019150602081019050602083039250610eb1565b6001836020036101000a0380198251168184511680821785525050505050509050019150506040518091039020600019161415610f3157600160058190555060006006541415610f2857426006819055505b600192506110ce565b60405180807f70617065720000000000000000000000000000000000000000000000000000008152506005019050604051809103902060001916856040518082805190602001908083835b602083101515610fa15780518252602082019150602081019050602083039250610f7c565b6001836020036101000a0380198251168184511680821785525050505050509050019150506040518091039020600019161415610ffc57600260058190555060006006541415610ff357426006819055505b600192506110ce565b60405180807f73636973736f72730000000000000000000000000000000000000000000000008152506008019050604051809103902060001916856040518082805190602001908083835b60208310151561106c5780518252602082019150602081019050602083039250611047565b6001836020036101000a03801982511681845116808217855250505050505090500191505060405180910390206000191614156110c7576003600581905550600060065414156110be57426006819055505b600192506110ce565b5b5b600092505b505092915050565b60008060006101000a81548173ffffffffffffffffffffffffffffffffffffffff021916908373ffffffffffffffffffffffffffffffffffffffff1602179055506000600160006101000a81548173ffffffffffffffffffffffffffffffffffffffff021916908373ffffffffffffffffffffffffffffffffffffffff160217905550600060010260028160001916905550600060010260038160001916905550600060048190555060006005819055506000600681905550565b60008060009054906101000a900473ffffffffffffffffffffffffffffffffffffffff1673ffffffffffffffffffffffffffffffffffffffff163373ffffffffffffffffffffffffffffffffffffffff16148061123b5750600160009054906101000a900473ffffffffffffffffffffffffffffffffffffffff1673ffffffffffffffffffffffffffffffffffffffff163373ffffffffffffffffffffffffffffffffffffffff16145b151561124657600080fd5b8260405180807f726f636b000000000000000000000000000000000000000000000000000000008152506004019050604051809103902060001916816040518082805190602001908083835b6020831015156112b75780518252602082019150602081019050602083039250611292565b6001836020036101000a0380198251168184511680821785525050505050509050019150506040518091039020600019161480611392575060405180807f70617065720000000000000000000000000000000000000000000000000000008152506005019050604051809103902060001916816040518082805190602001908083835b60208310151561135f578051825260208201915060208101905060208303925061133a565b6001836020036101000a038019825116818451168082178552505050505050905001915050604051809103902060001916145b8061143b575060405180807f73636973736f72730000000000000000000000000000000000000000000000008152506008019050604051809103902060001916816040518082805190602001908083835b60208310151561140857805182526020820191506020810190506020830392506113e3565b6001836020036101000a038019825116818451168082178552505050505050905001915050604051809103902060001916145b151561144657600080fd5b6000809054906101000a900473ffffffffffffffffffffffffffffffffffffffff1673ffffffffffffffffffffffffffffffffffffffff163373ffffffffffffffffffffffffffffffffffffffff161480156114af575060006001026000191660025460001916145b156115ab57826040518082805190602001908083835b6020831015156114ea57805182526020820191506020810190506020830392506114c5565b6001836020036101000a0380198251168184511680821785525050505050509050019150506040518091039020846040518082805190602001908083835b60208310151561154d5780518252602082019150602081019050602083039250611528565b6001836020036101000a03801982511681845116808217855250505050505090500191505060405180910390201860405180826000191660001916815260200191505060405180910390206002816000191690555060019150611716565b600160009054906101000a900473ffffffffffffffffffffffffffffffffffffffff1673ffffffffffffffffffffffffffffffffffffffff163373ffffffffffffffffffffffffffffffffffffffff16148015611615575060006001026000191660035460001916145b1561171157826040518082805190602001908083835b602083101515611650578051825260208201915060208101905060208303925061162b565b6001836020036101000a0380198251168184511680821785525050505050509050019150506040518091039020846040518082805190602001908083835b6020831015156116b3578051825260208201915060208101905060208303925061168e565b6001836020036101000a03801982511681845116808217855250505050505090500191505060405180910390201860405180826000191660001916815260200191505060405180910390206003816000191690555060019150611716565b600091505b5092915050565b3373ffffffffffffffffffffffffffffffffffffffff166108fc3073ffffffffffffffffffffffffffffffffffffffff16319081150290604051600060405180830381858888f19350505050151561177457600080fd5b565b60003073ffffffffffffffffffffffffffffffffffffffff1631905090565b6000600160009054906101000a900473ffffffffffffffffffffffffffffffffffffffff16905090565b600060010260025460001916141580156117e3575060006001026003546000191614155b15156117ee57600080fd5b6000600454141580156118045750600060055414155b151561180f57600080fd5b60055460045414156118ef576000809054906101000a900473ffffffffffffffffffffffffffffffffffffffff1673ffffffffffffffffffffffffffffffffffffffff166108fc6745400a8fd53300009081150290604051600060405180830381858888f19350505050151561188457600080fd5b600160009054906101000a900473ffffffffffffffffffffffffffffffffffffffff1673ffffffffffffffffffffffffffffffffffffffff166108fc6745400a8fd53300009081150290604051600060405180830381858888f1935050505015156118ee57600080fd5b5b600160045414801561190357506003600554145b8061191e5750600260045414801561191d57506001600554145b5b806119395750600360045414801561193857506002600554145b5b8061196557507fffffffffffffffffffffffffffffffffffffffffffffffffffffffffffffffff600554145b156119d4576000809054906101000a900473ffffffffffffffffffffffffffffffffffffffff1673ffffffffffffffffffffffffffffffffffffffff166108fc678a80151faa6600009081150290604051600060405180830381858888f1935050505015156119d357600080fd5b5b60036004541480156119e857506001600554145b80611a0357506001600454148015611a0257506002600554145b5b80611a1e57506002600454148015611a1d57506003600554145b5b80611a4a57507fffffffffffffffffffffffffffffffffffffffffffffffffffffffffffffffff600454145b15611aba57600160009054906101000a900473ffffffffffffffffffffffffffffffffffffffff1673ffffffffffffffffffffffffffffffffffffffff166108fc678a80151faa6600009081150290604051600060405180830381858888f193505050501515611ab957600080fd5b5b611ac26110d6565b5600a165627a7a72305820bd70fbe15a9b8b5d155b0690bd3ad60e13e4c5026a8db89a7f6e8f07221c9c2c0029",
  "source": "pragma solidity ^0.4.17;\n\ncontract RPS {\n\t// Rock =0, Paper = 1, Scissors = 2\n\taddress user1;\n\taddress user2;\n\tbytes32 hash1;\n\tbytes32 hash2;\n\tint claimed1;\n\tint claimed2;\n\tuint firstRevealTime;\n\n\t// Check if required minimum amount is present\n\tmodifier checkbalance() {\n\t\trequire(msg.value>=5000000000000000000);\n\t\t_;\n\t}\n\t// Check if user is already registered\n\tmodifier isRegistered() {\n\t\trequire(msg.sender==user1 || msg.sender==user2);\n\t\t_;\n\t}\n\t// Check if user is already registered\n\tmodifier isNotRegistered() {\n\t\trequire(msg.sender!=user1 && msg.sender!=user2);\n\t\t_;\n\t}\n\t// Check if both users have locked their choices, so the game can go to reveal stage\n\tmodifier bothLocked(){\n\t\trequire( hash1!=0 && hash2!=0);\n\t\t_;\n\t}\n\t// Check if both users have locked their choices, so the game can go to reveal stage\n\tmodifier bothClaimed(){\n\t\trequire(claimed1!=0 && claimed2!=0);\n\t\t_;\n\t}\n\t// Check if string is valid\n\tmodifier validChoice(string choice){\n\t\trequire(keccak256(choice) == keccak256(\"rock\") || keccak256(choice) == keccak256(\"paper\") || keccak256(choice) == keccak256(\"scissors\"));\n\t\t_;\n\t}\n\n\n\t//function () public payable {} \n\n\t// Initializes all the variables to default values\n\tfunction cleanup() public {\n\t  user1 = address(0);\n\t  user2 = address(0);\n\t  hash1 = bytes32(0);\n\t  hash2 = bytes32(0);\n\t  claimed1 = 0;\n\t  claimed2 = 0;\n\t  firstRevealTime = 0;\n\t}\n\tfunction register() public payable isNotRegistered checkbalance{\n\t\tif(user1==0){\n\t\t\tuser1 = msg.sender;\n\t\t}\n\t\telse {\n\t\t\tif(user2==0)\n\t\t\t\tuser2 = msg.sender;\n\t\t}\n\t}\n\tfunction lock(string choice,string randStr) public isRegistered validChoice(choice) returns (bool) {\n\t\tif(msg.sender ==user1 && hash1==bytes32(0)){\n\t\t\thash1 = keccak256(keccak256(choice) ^ keccak256(randStr));\n\t\t\treturn true;\n\t\t}\n\t\tif(msg.sender ==user2 && hash2==bytes32(0)){\n\t\t\thash2 = keccak256(keccak256(choice) ^ keccak256(randStr));\n\t\t\treturn true;\n\t\t}\n\t\treturn false;\n\t}\n\tfunction open(string choice,string randStr) public isRegistered bothLocked validChoice(choice) returns (bool) {\n\t\tbytes32 tempHash = keccak256(keccak256(choice) ^ keccak256(randStr));\n\t\tif(msg.sender ==user1){\n\t\t\tif(tempHash==hash1){\n\t\t\t\tif(keccak256(choice)==keccak256(\"rock\")){\n\t\t\t\t\tclaimed1 = 1;\n\t\t\t\t\tif(firstRevealTime==0)\n\t\t\t\t\t\tfirstRevealTime = now;\n\t\t\t\t\treturn true;\n\t\t\t\t}\n\t\t\t\tif(keccak256(choice)==keccak256(\"paper\")){\n\t\t\t\t\tclaimed1 = 2;\n\t\t\t\t\tif(firstRevealTime==0)\n\t\t\t\t\t\tfirstRevealTime = now;\n\t\t\t\t\treturn true;\n\t\t\t\t}\n\t\t\t\tif(keccak256(choice)==keccak256(\"scissors\")){\n\t\t\t\t\tclaimed1 = 3;\n\t\t\t\t\tif(firstRevealTime==0)\n\t\t\t\t\t\tfirstRevealTime = now;\n\t\t\t\t\treturn true;\n\t\t\t\t}\n\t\t\t}\n\t\t}\n\t\tif(msg.sender ==user2){\n\t\t\tif(tempHash==hash2){\n\t\t\t\tif(keccak256(choice)==keccak256(\"rock\")){\n\t\t\t\t\tclaimed2 = 1;\n\t\t\t\t\tif(firstRevealTime==0)\n\t\t\t\t\t\tfirstRevealTime = now;\n\t\t\t\t\treturn true;\n\t\t\t\t}\n\t\t\t\tif(keccak256(choice)==keccak256(\"paper\")){\n\t\t\t\t\tclaimed2 = 2;\n\t\t\t\t\tif(firstRevealTime==0)\n\t\t\t\t\t\tfirstRevealTime = now;\n\t\t\t\t\treturn true;\n\t\t\t\t}\n\t\t\t\tif(keccak256(choice)==keccak256(\"scissors\")){\n\t\t\t\t\tclaimed2 = 3;\n\t\t\t\t\tif(firstRevealTime==0)\n\t\t\t\t\t\tfirstRevealTime = now;\n\t\t\t\t\treturn true;\n\t\t\t\t}\n\t\t\t}\n\t\t}\n\t\treturn false;\n\t}\n\n\tfunction processRewards() public bothLocked bothClaimed{\n\t\t// In case of no result, send half money to either parties\n\t\tif(claimed1==claimed2){\n\t\t\tuser1.transfer(4990000000000000000);\n\t\t\tuser2.transfer(4990000000000000000);\n\t\t}\n\t\t// 3 choices in which user 1 wins\n\t\tif((claimed1==1 && claimed2==3) || (claimed1==2 && claimed2==1) || (claimed1==3 && claimed2==2) || claimed2==-1)\n\t\t\tuser1.transfer(9980000000000000000);\n\t\t// 3 choices in which user 1 wins\n\t\tif((claimed1==3 && claimed2==1) || (claimed1==1 && claimed2==2) || (claimed1==2 && claimed2==3) || claimed1==-1)\n\t\t\tuser2.transfer(9980000000000000000);\n\t\tcleanup();\n\t}\n\t// Functions for logs\n\tfunction getContractBalance() public constant returns (uint amount) {\n\t\treturn this.balance;\n\t}\n\tfunction getContractAddress() public constant returns (address) {\n\t\treturn this;\n\t}\n\tfunction sendAllMoney() public  {\n\t\tmsg.sender.transfer(this.balance);\n\t}\n\tfunction getUser1() public view returns (address) {\n\t  \treturn user1;\n\t}\n\tfunction getUser2() public view returns (address) {\n\t  \treturn user2;\n\t}\n\tfunction getHash1() public view returns (bytes32) {\n\t  \treturn hash1;\n\t}\n\tfunction getHash2() public view returns (bytes32) {\n\t  \treturn hash2;\n\t}\n\tfunction getState() public view returns (int) {\n\t  \tif(hash1==bytes32(0) && hash2==bytes32(0))\n\t  \t\treturn 0;\n\t  \tif(hash1==bytes32(0) && hash2!=bytes32(0))\n\t  \t\treturn 1;\n\t  \tif(hash1!=bytes32(0) && hash2==bytes32(0))\n\t  \t\treturn 2;\n\t  \t// Both users have locked at this point of time, return values if claimed\n\t  \tint ans = 400 + (claimed1*10 + claimed2);\n\n\t  \t// Check the case of a user not able to claim a choice for long\n\t  \tif(firstRevealTime!=0 && (now-firstRevealTime)>=120){\n\t  \t\tif(claimed1 == 0)\n\t  \t\t\tans = 400 + (40 + claimed2);\n\t  \t\tif(claimed2 == 0)\n\t  \t\t\tans = 400 + (claimed1*10 + 4);\n\t  \t}\n\t  \t\n\t  \t// If one user has already opened a choice, while the other hasn't, then update a stale choice for the other\n\t  \t// if(firstRevealTime!=0 && (now-firstRevealTime)>=120){\n\t  \t// \tif(claimed1==0)\n\t  \t// \t\tclaimed1 = -1;\n\t  \t// \tif(claimed2==0)\n\t  \t// \t\tclaimed2 = -1;\n\t  \t// }\n\t  \t// If both users have opened their choices, and there is winner, process it\n\t  \t// if(claimed1!=0 && claimed2!=0)\n\t  \t// \tprocessRewards();\n\n\t  \treturn ans;\n\t}\n}\n",
  "sourcePath": "/home/manish/Academics/467/Smart-Contract/RPS/contracts/RPS.sol",
  "compiler": {
    "name": "solc",
    "version": "0.4.19+commit.c4cbbb05.Emscripten.clang"
  },
  "schemaVersion": "1.0.1",
  "updatedAt": "2018-03-04T17:27:22.969Z"
}