{
  "contractName": "RPS",
  "abi": [
    {
      "constant": false,
      "inputs": [],
      "name": "cleanup",
      "outputs": [],
      "payable": false,
      "stateMutability": "nonpayable",
      "type": "function"
    },
    {
      "constant": false,
      "inputs": [],
      "name": "register",
      "outputs": [],
      "payable": false,
      "stateMutability": "nonpayable",
      "type": "function"
    },
    {
      "constant": false,
      "inputs": [
        {
          "name": "choice",
          "type": "string"
        },
        {
          "name": "randStr",
          "type": "string"
        }
      ],
      "name": "lock",
      "outputs": [],
      "payable": false,
      "stateMutability": "nonpayable",
      "type": "function"
    },
    {
      "constant": false,
      "inputs": [
        {
          "name": "choice",
          "type": "string"
        },
        {
          "name": "randStr",
          "type": "string"
        }
      ],
      "name": "open",
      "outputs": [],
      "payable": false,
      "stateMutability": "nonpayable",
      "type": "function"
    },
    {
      "constant": true,
      "inputs": [],
      "name": "getUser1",
      "outputs": [
        {
          "name": "",
          "type": "address"
        }
      ],
      "payable": false,
      "stateMutability": "view",
      "type": "function"
    },
    {
      "constant": true,
      "inputs": [],
      "name": "getUser2",
      "outputs": [
        {
          "name": "",
          "type": "address"
        }
      ],
      "payable": false,
      "stateMutability": "view",
      "type": "function"
    },
    {
      "constant": true,
      "inputs": [],
      "name": "getHash1",
      "outputs": [
        {
          "name": "",
          "type": "bytes32"
        }
      ],
      "payable": false,
      "stateMutability": "view",
      "type": "function"
    },
    {
      "constant": true,
      "inputs": [],
      "name": "getHash2",
      "outputs": [
        {
          "name": "",
          "type": "bytes32"
        }
      ],
      "payable": false,
      "stateMutability": "view",
      "type": "function"
    }
  ],
  "bytecode": "0x6060604052341561000f57600080fd5b6114788061001e6000396000f30060606040526004361061008e576000357c0100000000000000000000000000000000000000000000000000000000900463ffffffff16806311c171ba146100935780631aa3a008146100c457806333c0f099146100d957806336d81f071461010a57806339110b781461015f5780633cecd719146101ff5780634406face146102145780639e01f9b9146102b4575b600080fd5b341561009e57600080fd5b6100a6610309565b60405180826000191660001916815260200191505060405180910390f35b34156100cf57600080fd5b6100d7610313565b005b34156100e457600080fd5b6100ec61041e565b60405180826000191660001916815260200191505060405180910390f35b341561011557600080fd5b61011d610428565b604051808273ffffffffffffffffffffffffffffffffffffffff1673ffffffffffffffffffffffffffffffffffffffff16815260200191505060405180910390f35b341561016a57600080fd5b6101fd600480803590602001908201803590602001908080601f0160208091040260200160405190810160405280939291908181526020018383808284378201915050505050509190803590602001908201803590602001908080601f01602080910402602001604051908101604052809392919081815260200183838082843782019150505050505091905050610451565b005b341561020a57600080fd5b610212610e02565b005b341561021f57600080fd5b6102b2600480803590602001908201803590602001908080601f0160208091040260200160405190810160405280939291908181526020018383808284378201915050505050509190803590602001908201803590602001908080601f01602080910402602001604051908101604052809392919081815260200183838082843782019150505050505091905050610eb7565b005b34156102bf57600080fd5b6102c7611422565b604051808273ffffffffffffffffffffffffffffffffffffffff1673ffffffffffffffffffffffffffffffffffffffff16815260200191505060405180910390f35b6000600254905090565b60008060009054906101000a900473ffffffffffffffffffffffffffffffffffffffff1673ffffffffffffffffffffffffffffffffffffffff16141561039857336000806101000a81548173ffffffffffffffffffffffffffffffffffffffff021916908373ffffffffffffffffffffffffffffffffffffffff16021790555061041c565b6000600160009054906101000a900473ffffffffffffffffffffffffffffffffffffffff1673ffffffffffffffffffffffffffffffffffffffff16141561041b5733600160006101000a81548173ffffffffffffffffffffffffffffffffffffffff021916908373ffffffffffffffffffffffffffffffffffffffff1602179055505b5b565b6000600354905090565b60008060009054906101000a900473ffffffffffffffffffffffffffffffffffffffff16905090565b60008060009054906101000a900473ffffffffffffffffffffffffffffffffffffffff1673ffffffffffffffffffffffffffffffffffffffff163373ffffffffffffffffffffffffffffffffffffffff1614806104fb5750600160009054906101000a900473ffffffffffffffffffffffffffffffffffffffff1673ffffffffffffffffffffffffffffffffffffffff163373ffffffffffffffffffffffffffffffffffffffff16145b151561050657600080fd5b6000600102600254600019161415801561052a575060006001026003546000191614155b151561053557600080fd5b8260405180807f726f636b000000000000000000000000000000000000000000000000000000008152506004019050604051809103902060001916816040518082805190602001908083835b6020831015156105a65780518252602082019150602081019050602083039250610581565b6001836020036101000a0380198251168184511680821785525050505050509050019150506040518091039020600019161480610681575060405180807f70617065720000000000000000000000000000000000000000000000000000008152506005019050604051809103902060001916816040518082805190602001908083835b60208310151561064e5780518252602082019150602081019050602083039250610629565b6001836020036101000a038019825116818451168082178552505050505050905001915050604051809103902060001916145b8061072a575060405180807f73636973736f72730000000000000000000000000000000000000000000000008152506008019050604051809103902060001916816040518082805190602001908083835b6020831015156106f757805182526020820191506020810190506020830392506106d2565b6001836020036101000a038019825116818451168082178552505050505050905001915050604051809103902060001916145b151561073557600080fd5b826040518082805190602001908083835b60208310151561076b5780518252602082019150602081019050602083039250610746565b6001836020036101000a0380198251168184511680821785525050505050509050019150506040518091039020846040518082805190602001908083835b6020831015156107ce57805182526020820191506020810190506020830392506107a9565b6001836020036101000a038019825116818451168082178552505050505050905001915050604051809103902018604051808260001916600019168152602001915050604051809103902091506000809054906101000a900473ffffffffffffffffffffffffffffffffffffffff1673ffffffffffffffffffffffffffffffffffffffff163373ffffffffffffffffffffffffffffffffffffffff161415610a94576002546000191682600019161415610a935760405180807f726f636b000000000000000000000000000000000000000000000000000000008152506004019050604051809103902060001916846040518082805190602001908083835b6020831015156108f257805182526020820191506020810190506020830392506108cd565b6001836020036101000a03801982511681845116808217855250505050505090500191505060405180910390206000191614156109325760006004819055505b60405180807f70617065720000000000000000000000000000000000000000000000000000008152506005019050604051809103902060001916846040518082805190602001908083835b6020831015156109a2578051825260208201915060208101905060208303925061097d565b6001836020036101000a03801982511681845116808217855250505050505090500191505060405180910390206000191614156109e25760016004819055505b60405180807f73636973736f72730000000000000000000000000000000000000000000000008152506008019050604051809103902060001916846040518082805190602001908083835b602083101515610a525780518252602082019150602081019050602083039250610a2d565b6001836020036101000a0380198251168184511680821785525050505050509050019150506040518091039020600019161415610a925760026004819055505b5b5b600160009054906101000a900473ffffffffffffffffffffffffffffffffffffffff1673ffffffffffffffffffffffffffffffffffffffff163373ffffffffffffffffffffffffffffffffffffffff161415610dfc57826040518082805190602001908083835b602083101515610b205780518252602082019150602081019050602083039250610afb565b6001836020036101000a0380198251168184511680821785525050505050509050019150506040518091039020846040518082805190602001908083835b602083101515610b835780518252602082019150602081019050602083039250610b5e565b6001836020036101000a0380198251168184511680821785525050505050509050019150506040518091039020186040518082600019166000191681526020019150506040518091039020600381600019169055506002546000191682600019161415610dfb5760405180807f726f636b000000000000000000000000000000000000000000000000000000008152506004019050604051809103902060001916846040518082805190602001908083835b602083101515610c5a5780518252602082019150602081019050602083039250610c35565b6001836020036101000a0380198251168184511680821785525050505050509050019150506040518091039020600019161415610c9a5760006004819055505b60405180807f70617065720000000000000000000000000000000000000000000000000000008152506005019050604051809103902060001916846040518082805190602001908083835b602083101515610d0a5780518252602082019150602081019050602083039250610ce5565b6001836020036101000a0380198251168184511680821785525050505050509050019150506040518091039020600019161415610d4a5760016004819055505b60405180807f73636973736f72730000000000000000000000000000000000000000000000008152506008019050604051809103902060001916846040518082805190602001908083835b602083101515610dba5780518252602082019150602081019050602083039250610d95565b6001836020036101000a0380198251168184511680821785525050505050509050019150506040518091039020600019161415610dfa5760026004819055505b5b5b50505050565b60008060006101000a81548173ffffffffffffffffffffffffffffffffffffffff021916908373ffffffffffffffffffffffffffffffffffffffff1602179055506000600160006101000a81548173ffffffffffffffffffffffffffffffffffffffff021916908373ffffffffffffffffffffffffffffffffffffffff160217905550600060028160001916905550600060038160001916905550600060048190555060006005819055506000600681905550565b6000809054906101000a900473ffffffffffffffffffffffffffffffffffffffff1673ffffffffffffffffffffffffffffffffffffffff163373ffffffffffffffffffffffffffffffffffffffff161480610f5f5750600160009054906101000a900473ffffffffffffffffffffffffffffffffffffffff1673ffffffffffffffffffffffffffffffffffffffff163373ffffffffffffffffffffffffffffffffffffffff16145b1515610f6a57600080fd5b8160405180807f726f636b000000000000000000000000000000000000000000000000000000008152506004019050604051809103902060001916816040518082805190602001908083835b602083101515610fdb5780518252602082019150602081019050602083039250610fb6565b6001836020036101000a03801982511681845116808217855250505050505090500191505060405180910390206000191614806110b6575060405180807f70617065720000000000000000000000000000000000000000000000000000008152506005019050604051809103902060001916816040518082805190602001908083835b602083101515611083578051825260208201915060208101905060208303925061105e565b6001836020036101000a038019825116818451168082178552505050505050905001915050604051809103902060001916145b8061115f575060405180807f73636973736f72730000000000000000000000000000000000000000000000008152506008019050604051809103902060001916816040518082805190602001908083835b60208310151561112c5780518252602082019150602081019050602083039250611107565b6001836020036101000a038019825116818451168082178552505050505050905001915050604051809103902060001916145b151561116a57600080fd5b6000809054906101000a900473ffffffffffffffffffffffffffffffffffffffff1673ffffffffffffffffffffffffffffffffffffffff163373ffffffffffffffffffffffffffffffffffffffff161480156111cf5750600060010260025460001916145b156112c357816040518082805190602001908083835b60208310151561120a57805182526020820191506020810190506020830392506111e5565b6001836020036101000a0380198251168184511680821785525050505050509050019150506040518091039020836040518082805190602001908083835b60208310151561126d5780518252602082019150602081019050602083039250611248565b6001836020036101000a0380198251168184511680821785525050505050509050019150506040518091039020186040518082600019166000191681526020019150506040518091039020600281600019169055505b600160009054906101000a900473ffffffffffffffffffffffffffffffffffffffff1673ffffffffffffffffffffffffffffffffffffffff163373ffffffffffffffffffffffffffffffffffffffff161480156113295750600060010260035460001916145b1561141d57816040518082805190602001908083835b602083101515611364578051825260208201915060208101905060208303925061133f565b6001836020036101000a0380198251168184511680821785525050505050509050019150506040518091039020836040518082805190602001908083835b6020831015156113c757805182526020820191506020810190506020830392506113a2565b6001836020036101000a0380198251168184511680821785525050505050509050019150506040518091039020186040518082600019166000191681526020019150506040518091039020600381600019169055505b505050565b6000600160009054906101000a900473ffffffffffffffffffffffffffffffffffffffff169050905600a165627a7a72305820c39b429bb2e525728860bc4cf3a4ee34ebb8c037593247eba3d71bbcf4e94bd40029",
  "source": "pragma solidity ^0.4.17;\n\ncontract RPS {\n\t// Rock =0, Paper = 1, Scissors = 2\n\taddress user1;\n\taddress user2;\n\tbytes32 hash1;\n\tbytes32 hash2;\n\tint claimed1;\n\tint claimed2;\n\tint startTimeForClaim;\n\n\t// Check if required minimum amount is present\n\tmodifier checkbalance() {\n\t\trequire(msg.value>=5);\n\t\t_;\n\t}\n\t// Check if user is already registered\n\tmodifier isRegistered() {\n\t\trequire(msg.sender==user1 || msg.sender==user2);\n\t\t_;\n\t}\n\t// Check if both users have locked their choices, so the game can go to reveal stage\n\tmodifier bothLocked(){\n\t\trequire( hash1!=0 && hash2!=0);\n\t\t_;\n\t}\n\t// Check if string is valid\n\tmodifier validChoice(string choice){\n\t\trequire(keccak256(choice) == keccak256(\"rock\") || keccak256(choice) == keccak256(\"paper\") || keccak256(choice) == keccak256(\"scissors\"));\n\t\t_;\n\t}\n\n\t// Initializes all the variables to default values\n\tfunction cleanup() public {\n\t  user1 = 0;\n\t  user2 = 0;\n\t  hash1 = \"\";\n\t  hash2 = \"\";\n\t  claimed1 = 0;\n\t  claimed2 = 0;\n\t  startTimeForClaim = 0;\n\t}\n\tfunction register() public {\n\t\tif(user1==0)\n\t\t\tuser1 = msg.sender;\n\t\telse if(user2==0)\n\t\t\tuser2 = msg.sender;\n\t}\n\tfunction lock(string choice,string randStr) public isRegistered validChoice(choice) {\n\t\tif(msg.sender ==user1 && hash1==0)\n\t\t\thash1 = keccak256(keccak256(choice) ^ keccak256(randStr));\n\t\tif(msg.sender ==user2 && hash2==0)\n\t\t\thash2 = keccak256(keccak256(choice) ^ keccak256(randStr));\n\t}\n\tfunction open(string choice,string randStr) public isRegistered bothLocked validChoice(choice) {\n\t\tbytes32 tempHash = keccak256(keccak256(choice) ^ keccak256(randStr));\n\t\tif(msg.sender ==user1){\n\t\t\tif(tempHash==hash1){\n\t\t\t\tif(keccak256(choice)==keccak256(\"rock\"))\n\t\t\t\t\tclaimed1 = 0;\n\t\t\t\tif(keccak256(choice)==keccak256(\"paper\"))\n\t\t\t\t\tclaimed1 = 1;\n\t\t\t\tif(keccak256(choice)==keccak256(\"scissors\"))\n\t\t\t\t\tclaimed1 = 2;\n\t\t\t}\n\t\t}\n\t\tif(msg.sender ==user2){\n\t\t\thash2 = keccak256(keccak256(choice) ^ keccak256(randStr));\n\t\t\tif(tempHash==hash1){\n\t\t\t\tif(keccak256(choice)==keccak256(\"rock\"))\n\t\t\t\t\tclaimed1 = 0;\n\t\t\t\tif(keccak256(choice)==keccak256(\"paper\"))\n\t\t\t\t\tclaimed1 = 1;\n\t\t\t\tif(keccak256(choice)==keccak256(\"scissors\"))\n\t\t\t\t\tclaimed1 = 2;\n\t\t\t}\n\t\t}\n\t}\n\t// Functions for logs\n\tfunction getUser1() public view returns (address) {\n\t  \treturn user1;\n\t}\n\tfunction getUser2() public view returns (address) {\n\t  \treturn user2;\n\t}\n\tfunction getHash1() public view returns (bytes32) {\n\t  \treturn hash1;\n\t}\n\tfunction getHash2() public view returns (bytes32) {\n\t  \treturn hash2;\n\t}\n}\n",
  "sourcePath": "/home/manish/Academics/467/Smart-Contract/RPS/contracts/RPS.sol",
  "compiler": {
    "name": "solc",
    "version": "0.4.19+commit.c4cbbb05.Emscripten.clang"
  },
  "schemaVersion": "1.0.1",
  "updatedAt": "2018-02-28T16:46:12.208Z"
}